{
  "contractName": "Asset",
  "abi": [
    {
      "constant": true,
      "inputs": [],
      "name": "seller",
      "outputs": [
        {
          "name": "",
          "type": "address"
        }
      ],
      "payable": false,
      "stateMutability": "view",
      "type": "function"
    },
    {
      "constant": true,
      "inputs": [],
      "name": "totalCost",
      "outputs": [
        {
          "name": "",
          "type": "uint256"
        }
      ],
      "payable": false,
      "stateMutability": "view",
      "type": "function"
    },
    {
      "constant": true,
      "inputs": [],
      "name": "assetId",
      "outputs": [
        {
          "name": "",
          "type": "bytes12"
        }
      ],
      "payable": false,
      "stateMutability": "view",
      "type": "function"
    },
    {
      "constant": true,
      "inputs": [],
      "name": "title",
      "outputs": [
        {
          "name": "",
          "type": "string"
        }
      ],
      "payable": false,
      "stateMutability": "view",
      "type": "function"
    },
    {
      "constant": true,
      "inputs": [],
      "name": "kickbackAmount",
      "outputs": [
        {
          "name": "",
          "type": "uint256"
        }
      ],
      "payable": false,
      "stateMutability": "view",
      "type": "function"
    },
    {
      "constant": true,
      "inputs": [],
      "name": "expirationDate",
      "outputs": [
        {
          "name": "",
          "type": "uint256"
        }
      ],
      "payable": false,
      "stateMutability": "view",
      "type": "function"
    },
    {
      "constant": true,
      "inputs": [],
      "name": "term",
      "outputs": [
        {
          "name": "",
          "type": "uint256"
        }
      ],
      "payable": false,
      "stateMutability": "view",
      "type": "function"
    },
    {
      "constant": true,
      "inputs": [],
      "name": "tracker",
      "outputs": [
        {
          "name": "",
          "type": "address"
        }
      ],
      "payable": false,
      "stateMutability": "view",
      "type": "function"
    },
    {
      "constant": true,
      "inputs": [],
      "name": "isContract",
      "outputs": [
        {
          "name": "",
          "type": "bool"
        }
      ],
      "payable": false,
      "stateMutability": "view",
      "type": "function"
    },
    {
      "constant": true,
      "inputs": [],
      "name": "amountFunded",
      "outputs": [
        {
          "name": "",
          "type": "uint256"
        }
      ],
      "payable": false,
      "stateMutability": "view",
      "type": "function"
    },
    {
      "inputs": [
        {
          "name": "_assetId",
          "type": "bytes12"
        },
        {
          "name": "_term",
          "type": "uint256"
        },
        {
          "name": "_seller",
          "type": "address"
        },
        {
          "name": "_title",
          "type": "string"
        },
        {
          "name": "_totalCost",
          "type": "uint256"
        },
        {
          "name": "_expirationDate",
          "type": "uint256"
        },
        {
          "name": "_mpAddress",
          "type": "address"
        },
        {
          "name": "_mpAmount",
          "type": "uint256"
        }
      ],
      "payable": false,
      "stateMutability": "nonpayable",
      "type": "constructor"
    },
    {
      "constant": true,
      "inputs": [],
      "name": "getAssetConfig",
      "outputs": [
        {
          "name": "",
          "type": "bytes32"
        },
        {
          "name": "",
          "type": "uint256"
        },
        {
          "name": "",
          "type": "address"
        },
        {
          "name": "",
          "type": "uint256"
        },
        {
          "name": "",
          "type": "string"
        },
        {
          "name": "",
          "type": "bool"
        },
        {
          "name": "",
          "type": "bool"
        },
        {
          "name": "",
          "type": "uint256"
        },
        {
          "name": "",
          "type": "uint256"
        },
        {
          "name": "",
          "type": "address"
        },
        {
          "name": "",
          "type": "uint256"
        }
      ],
      "payable": false,
      "stateMutability": "view",
      "type": "function"
    },
    {
      "constant": true,
      "inputs": [
        {
          "name": "_contributor",
          "type": "address"
        }
      ],
      "name": "getMyContributions",
      "outputs": [
        {
          "name": "",
          "type": "uint256"
        }
      ],
      "payable": false,
      "stateMutability": "view",
      "type": "function"
    },
    {
      "constant": true,
      "inputs": [
        {
          "name": "_contributing",
          "type": "uint256"
        }
      ],
      "name": "isOpenForContribution",
      "outputs": [
        {
          "name": "",
          "type": "bool"
        }
      ],
      "payable": false,
      "stateMutability": "view",
      "type": "function"
    },
    {
      "constant": true,
      "inputs": [],
      "name": "isFunded",
      "outputs": [
        {
          "name": "",
          "type": "bool"
        }
      ],
      "payable": false,
      "stateMutability": "view",
      "type": "function"
    },
    {
      "constant": true,
      "inputs": [],
      "name": "isExpired",
      "outputs": [
        {
          "name": "",
          "type": "bool"
        }
      ],
      "payable": false,
      "stateMutability": "view",
      "type": "function"
    },
    {
      "constant": true,
      "inputs": [],
      "name": "isFractional",
      "outputs": [
        {
          "name": "",
          "type": "bool"
        }
      ],
      "payable": false,
      "stateMutability": "view",
      "type": "function"
    },
    {
      "constant": false,
      "inputs": [
        {
          "name": "_marketPlace",
          "type": "address"
        },
        {
          "name": "_contributor",
          "type": "address"
        },
        {
          "name": "_contributing",
          "type": "uint256"
        }
      ],
      "name": "contribute",
      "outputs": [],
      "payable": false,
      "stateMutability": "nonpayable",
      "type": "function"
    },
    {
      "constant": true,
      "inputs": [],
      "name": "calcDistribution",
      "outputs": [
        {
          "name": "",
          "type": "uint256"
        },
        {
          "name": "",
          "type": "uint256"
        }
      ],
      "payable": false,
      "stateMutability": "view",
      "type": "function"
    },
    {
      "constant": false,
      "inputs": [],
      "name": "releaseFunds",
      "outputs": [],
      "payable": false,
      "stateMutability": "nonpayable",
      "type": "function"
    }
  ],
  "bytecode": "0x608060405260006005556001600960006101000a81548160ff0219169083151502179055503480156200003157600080fd5b506040516200167738038062001677833981018060405281019080805190602001909291908051906020019092919080519060200190929190805182019291906020018051906020019092919080519060200190929190805190602001909291908051906020019092919050505087600360006101000a8154816bffffffffffffffffffffffff021916908374010000000000000000000000000000000000000000900402179055508660048190555085600160006101000a81548173ffffffffffffffffffffffffffffffffffffffff021916908373ffffffffffffffffffffffffffffffffffffffff16021790555084600a90805190602001906200013a92919062000204565b5083600681905550826007819055508060088190555060028290806001815401808255809150509060018203906000526020600020016000909192909190916101000a81548173ffffffffffffffffffffffffffffffffffffffff021916908373ffffffffffffffffffffffffffffffffffffffff16021790555050336000806101000a81548173ffffffffffffffffffffffffffffffffffffffff021916908373ffffffffffffffffffffffffffffffffffffffff1602179055505050505050505050620002b3565b828054600181600116156101000203166002900490600052602060002090601f016020900481019282601f106200024757805160ff191683800117855562000278565b8280016001018555821562000278579182015b82811115620002775782518255916020019190600101906200025a565b5b5090506200028791906200028b565b5090565b620002b091905b80821115620002ac57600081600090555060010162000292565b5090565b90565b6113b480620002c36000396000f300608060405260043610610107576000357c0100000000000000000000000000000000000000000000000000000000900463ffffffff16806308551a531461010c578063277eec39146101635780632f13b60c146101ba5780633c5e6c97146101e957806344de240a146102145780634a79d50c1461026d5780635cccf09d146102fd5780635e2b956d1461032f57806369d895751461035a5780637c654303146103715780638d472709146103a05780638f6204871461040d578063994dfab514610438578063a10ffbed14610576578063c520e717146105a1578063cb10bfda146105d0578063f52bccad14610615578063f7ec2f351461066c578063f9c36fde1461069b575b600080fd5b34801561011857600080fd5b506101216106c6565b604051808273ffffffffffffffffffffffffffffffffffffffff1673ffffffffffffffffffffffffffffffffffffffff16815260200191505060405180910390f35b34801561016f57600080fd5b506101a4600480360381019080803573ffffffffffffffffffffffffffffffffffffffff1690602001909291905050506106ec565b6040518082815260200191505060405180910390f35b3480156101c657600080fd5b506101cf610735565b604051808215151515815260200191505060405180910390f35b3480156101f557600080fd5b506101fe610742565b6040518082815260200191505060405180910390f35b34801561022057600080fd5b50610229610748565b604051808273ffffffffffffffffffffffffffffffffffffffff191673ffffffffffffffffffffffffffffffffffffffff1916815260200191505060405180910390f35b34801561027957600080fd5b5061028261076f565b6040518080602001828103825283818151815260200191508051906020019080838360005b838110156102c25780820151818401526020810190506102a7565b50505050905090810190601f1680156102ef5780820380516001836020036101000a031916815260200191505b509250505060405180910390f35b34801561030957600080fd5b5061031261080d565b604051808381526020018281526020019250505060405180910390f35b34801561033b57600080fd5b5061034461083b565b6040518082815260200191505060405180910390f35b34801561036657600080fd5b5061036f610841565b005b34801561037d57600080fd5b50610386610b2f565b604051808215151515815260200191505060405180910390f35b3480156103ac57600080fd5b5061040b600480360381019080803573ffffffffffffffffffffffffffffffffffffffff169060200190929190803573ffffffffffffffffffffffffffffffffffffffff16906020019092919080359060200190929190505050610b3e565b005b34801561041957600080fd5b506104226110f5565b6040518082815260200191505060405180910390f35b34801561044457600080fd5b5061044d6110fb565b604051808c600019166000191681526020018b81526020018a73ffffffffffffffffffffffffffffffffffffffff1673ffffffffffffffffffffffffffffffffffffffff1681526020018981526020018060200188151515158152602001871515151581526020018681526020018581526020018473ffffffffffffffffffffffffffffffffffffffff1673ffffffffffffffffffffffffffffffffffffffff168152602001838152602001828103825289818151815260200191508051906020019080838360005b83811015610531578082015181840152602081019050610516565b50505050905090810190601f16801561055e5780820380516001836020036101000a031916815260200191505b509c5050505050505050505050505060405180910390f35b34801561058257600080fd5b5061058b611288565b6040518082815260200191505060405180910390f35b3480156105ad57600080fd5b506105b661128e565b604051808215151515815260200191505060405180910390f35b3480156105dc57600080fd5b506105fb600480360381019080803590602001909291905050506112ab565b604051808215151515815260200191505060405180910390f35b34801561062157600080fd5b5061062a6112e9565b604051808273ffffffffffffffffffffffffffffffffffffffff1673ffffffffffffffffffffffffffffffffffffffff16815260200191505060405180910390f35b34801561067857600080fd5b5061068161130e565b604051808215151515815260200191505060405180910390f35b3480156106a757600080fd5b506106b0611321565b6040518082815260200191505060405180910390f35b600160009054906101000a900473ffffffffffffffffffffffffffffffffffffffff1681565b6000600b60008373ffffffffffffffffffffffffffffffffffffffff1673ffffffffffffffffffffffffffffffffffffffff168152602001908152602001600020549050919050565b6000426007541115905090565b60065481565b600360009054906101000a9004740100000000000000000000000000000000000000000281565b600a8054600181600116156101000203166002900480601f0160208091040260200160405190810160405280929190818152602001828054600181600116156101000203166002900480156108055780601f106107da57610100808354040283529160200191610805565b820191906000526020600020905b8154815290600101906020018083116107e857829003601f168201915b505050505081565b60008060008060028054905060085481151561082557fe5b0491508160065403905081819350935050509091565b60085481565b60008060008061084f610b2f565b15610b29576000809054906101000a900473ffffffffffffffffffffffffffffffffffffffff16935061088061080d565b80935081945050508373ffffffffffffffffffffffffffffffffffffffff1663353ce1ac30600160009054906101000a900473ffffffffffffffffffffffffffffffffffffffff16856040518463ffffffff167c0100000000000000000000000000000000000000000000000000000000028152600401808473ffffffffffffffffffffffffffffffffffffffff1673ffffffffffffffffffffffffffffffffffffffff1681526020018373ffffffffffffffffffffffffffffffffffffffff1673ffffffffffffffffffffffffffffffffffffffff1681526020018281526020019350505050602060405180830381600087803b15801561098157600080fd5b505af1158015610995573d6000803e3d6000fd5b505050506040513d60208110156109ab57600080fd5b810190808051906020019092919050505050600090505b600280549050811015610b28578373ffffffffffffffffffffffffffffffffffffffff1663353ce1ac306002848154811015156109fb57fe5b9060005260206000200160009054906101000a900473ffffffffffffffffffffffffffffffffffffffff16866040518463ffffffff167c0100000000000000000000000000000000000000000000000000000000028152600401808473ffffffffffffffffffffffffffffffffffffffff1673ffffffffffffffffffffffffffffffffffffffff1681526020018373ffffffffffffffffffffffffffffffffffffffff1673ffffffffffffffffffffffffffffffffffffffff1681526020018281526020019350505050602060405180830381600087803b158015610adf57600080fd5b505af1158015610af3573d6000803e3d6000fd5b505050506040513d6020811015610b0957600080fd5b81019080805190602001909291905050505080806001019150506109c2565b5b50505050565b60006006546005541015905090565b600080600080600080610b50876112ab565b1515610b5b57600080fd5b6000809054906101000a900473ffffffffffffffffffffffffffffffffffffffff1694508473ffffffffffffffffffffffffffffffffffffffff1663f8b2cb4f896040518263ffffffff167c0100000000000000000000000000000000000000000000000000000000028152600401808273ffffffffffffffffffffffffffffffffffffffff1673ffffffffffffffffffffffffffffffffffffffff168152602001915050602060405180830381600087803b158015610c1a57600080fd5b505af1158015610c2e573d6000803e3d6000fd5b505050506040513d6020811015610c4457600080fd5b8101908080519060200190929190505050935086841015610c6457600080fd5b60028990806001815401808255809150509060018203906000526020600020016000909192909190916101000a81548173ffffffffffffffffffffffffffffffffffffffff021916908373ffffffffffffffffffffffffffffffffffffffff16021790555050610cd261128e565b15610e10578473ffffffffffffffffffffffffffffffffffffffff16637f6cdfa689308a6040518463ffffffff167c0100000000000000000000000000000000000000000000000000000000028152600401808473ffffffffffffffffffffffffffffffffffffffff1673ffffffffffffffffffffffffffffffffffffffff1681526020018373ffffffffffffffffffffffffffffffffffffffff1673ffffffffffffffffffffffffffffffffffffffff1681526020018281526020019350505050602060405180830381600087803b158015610dae57600080fd5b505af1158015610dc2573d6000803e3d6000fd5b505050506040513d6020811015610dd857600080fd5b81019080805190602001909291905050509550600115158615151415610e0357610e028888611327565b5b610e0b610841565b6110ea565b600654871015156110e457610e2361080d565b80935081945050508473ffffffffffffffffffffffffffffffffffffffff16637f6cdfa689600160009054906101000a900473ffffffffffffffffffffffffffffffffffffffff16856040518463ffffffff167c0100000000000000000000000000000000000000000000000000000000028152600401808473ffffffffffffffffffffffffffffffffffffffff1673ffffffffffffffffffffffffffffffffffffffff1681526020018373ffffffffffffffffffffffffffffffffffffffff1673ffffffffffffffffffffffffffffffffffffffff1681526020018281526020019350505050602060405180830381600087803b158015610f2457600080fd5b505af1158015610f38573d6000803e3d6000fd5b505050506040513d6020811015610f4e57600080fd5b810190808051906020019092919050505050610f6a8888611327565b60008311156110df57600090505b6002805490508110156110de578473ffffffffffffffffffffffffffffffffffffffff16637f6cdfa689600284815481101515610fb157fe5b9060005260206000200160009054906101000a900473ffffffffffffffffffffffffffffffffffffffff16866040518463ffffffff167c0100000000000000000000000000000000000000000000000000000000028152600401808473ffffffffffffffffffffffffffffffffffffffff1673ffffffffffffffffffffffffffffffffffffffff1681526020018373ffffffffffffffffffffffffffffffffffffffff1673ffffffffffffffffffffffffffffffffffffffff1681526020018281526020019350505050602060405180830381600087803b15801561109557600080fd5b505af11580156110a9573d6000803e3d6000fd5b505050506040513d60208110156110bf57600080fd5b8101908080519060200190929190505050508080600101915050610f78565b5b6110e9565b600080fd5b5b505050505050505050565b60075481565b6000806000806060600080600080600080600360009054906101000a90047401000000000000000000000000000000000000000002600454600160009054906101000a900473ffffffffffffffffffffffffffffffffffffffff16600554600a611163610b2f565b61116b610735565b6006546007546002600081548110151561118157fe5b9060005260206000200160009054906101000a900473ffffffffffffffffffffffffffffffffffffffff166008548a73ffffffffffffffffffffffffffffffffffffffff19169a50868054600181600116156101000203166002900480601f01602080910402602001604051908101604052809291908181526020018280546001816001161561010002031660029004801561125e5780601f106112335761010080835404028352916020019161125e565b820191906000526020600020905b81548152906001019060200180831161124157829003601f168201915b505050505096509a509a509a509a509a509a509a509a509a509a509a50909192939495969798999a565b60045481565b60008060045411156112a357600190506112a8565b600090505b90565b6000806112b6610735565b156112c457600091506112e3565b600554830190506006548111156112de57600091506112e3565b600191505b50919050565b6000809054906101000a900473ffffffffffffffffffffffffffffffffffffffff1681565b600960009054906101000a900460ff1681565b60055481565b8060056000828254019250508190555080600b60008473ffffffffffffffffffffffffffffffffffffffff1673ffffffffffffffffffffffffffffffffffffffff1681526020019081526020016000206000828254019250508190555050505600a165627a7a72305820334819103e8607f207aafd786f44d97bfa22cd6c1d70f653a7c247e21f522dca0029",
  "source": "pragma solidity ^0.4.21;\n\n// Interface contracts are interface layers to the main contracts which defines\n// a function and its input/output parameters. \n// Use in conjuction to real contract's address, you can interact with external\n// contract's functions using this interface layer\ncontract TrackerInterface {\n    \n    function internalContribute (address _from, address _to, uint _amount) \n        public returns (bool);\n        \n    function internalRedeemFunds (\n        address _listingAddress, \n        address _seller, \n        uint _amount) public returns (bool);\n        \n    function getBalance(address _wallet) public returns (uint);\n}\n\ncontract Asset {\n\n    address public tracker;\n    address public seller;\n    address[] listOfMarketPlaces;\n    bytes12 public assetId;\n    uint public term;\n    uint public amountFunded = 0;\n    uint public totalCost;\n    uint public expirationDate;\n    uint public kickbackAmount;\n    bool public isContract = true;\n    string public title;\n    mapping(address => uint) contributions;\n\n    constructor(\n        bytes12 _assetId, \n        uint _term, \n        address _seller, \n        string _title, \n        uint _totalCost, \n        uint _expirationDate, \n        address _mpAddress, \n        uint _mpAmount) public {\n            assetId = _assetId;\n            term = _term;\n            seller = _seller;\n            title = _title;\n            totalCost = _totalCost;\n            expirationDate = _expirationDate;\n            kickbackAmount = _mpAmount;\n            listOfMarketPlaces.push(_mpAddress);\n            tracker = msg.sender;\n    }\n\n    function getAssetConfig() public constant returns(\n        bytes32, \n        uint, \n        address, \n        uint, \n        string, \n        bool, \n        bool, \n        uint, \n        uint, \n        address, \n        uint) {\n        return (\n            assetId, \n            term, \n            seller, \n            amountFunded, \n            title, \n            isFunded(), \n            isExpired(), \n            totalCost, \n            expirationDate, \n            listOfMarketPlaces[0], \n            kickbackAmount);\n    }\n\n    // Getter function. returns a users's total contributions so far for this asset.\n    function getMyContributions(address _contributor) public constant returns (uint) {\n        return contributions[_contributor];\n    }\n    \n    // Checks to see if asset is open for contributions or not\n    // Based on expired or not, and if incoming contribution will overflow the asset or not\n    function isOpenForContribution(uint _contributing) public constant returns (bool) {\n        if (isExpired())\n           return false;\n        uint willGoOverBoard = _contributing + amountFunded;\n        if (willGoOverBoard > totalCost)\n            return false;\n        return true;\n    }\n    \n    // Getter function. returns if asset is fully funded or not\n    function isFunded() public constant returns (bool) {\n        return amountFunded >= totalCost;\n    }\n    \n    // Getter function. returns if listing is expired or not\n    function isExpired() public constant returns (bool) {\n        return expirationDate <= now;\n    }\n    \n    // Getter function. returns if asset is fractional or not based on term\n    function isFractional() public constant returns (bool) {\n        if (term > 0)\n            return true;\n        return false;\n    }\n    \n    // Handles multi/single contribuitons\n    function contribute(address _marketPlace, address _contributor, uint _contributing) public {\n\n        if (!isOpenForContribution(_contributing))\n            revert();\n        \n       bool result;\n        TrackerInterface trackerContract = TrackerInterface(tracker);\n        uint userBalance = trackerContract.getBalance(_contributor);\n        if (userBalance < _contributing)\n           revert();\n        listOfMarketPlaces.push(_marketPlace);\n        \n        if (isFractional()) {\n            result = trackerContract.internalContribute(_contributor, this, _contributing);\n            if(result == true)\n               addToContributions(_contributor, _contributing);\n            releaseFunds();\n            \n        } else if (_contributing >= totalCost) {\n            uint mpGets;\n            uint sellerGets;\n            (mpGets, sellerGets) = calcDistribution();\n            trackerContract.internalContribute(_contributor, seller, sellerGets);\n            addToContributions(_contributor, _contributing);\n            if(mpGets > 0)\n                for(uint i = 0; i < listOfMarketPlaces.length; i++)\n                    trackerContract.internalContribute(_contributor, listOfMarketPlaces[i], mpGets);\n        } else\n            revert();\n    }\n    \n    // Calculate how much seller gets after kickbacks taken out\n    function calcDistribution() public constant returns (uint, uint) {\n        \n        uint kickbackWitheld = kickbackAmount / listOfMarketPlaces.length;\n        uint sellerGets = totalCost - kickbackWitheld;\n        return (kickbackWitheld, sellerGets);\n    }\n    \n    // Updates this contract's metadata\n    function addToContributions(address _contributor, uint _contributing) private {\n        amountFunded += _contributing;\n        contributions[_contributor] += _contributing;\n    }\n    \n    // This is specifically for fractional sellers\n    // It will release funds to seller if listing is fully funded and the listing is expired\n    function releaseFunds() public {\n        \n        if (isFunded()) {\n            TrackerInterface trackerContract = TrackerInterface(tracker);\n            uint mpGets; \n            uint sellerGets;\n            (mpGets, sellerGets) = calcDistribution();\n            trackerContract.internalRedeemFunds(this, seller, sellerGets);\n            for (uint i = 0; i < listOfMarketPlaces.length; i++)\n                trackerContract.internalRedeemFunds(this, listOfMarketPlaces[i], mpGets);\n        }\n    }\n}",
  "sourcePath": "/Users/kay4444/Documents/splyt_testing/contracts/Asset.sol",
  "compiler": {
    "name": "solc",
    "version": "0.4.23+commit.124ca40d.Emscripten.clang"
  },
  "schemaVersion": "2.0.0",
  "updatedAt": "2018-05-03T16:27:10.448Z"
}