{
  "contractName": "Encryption",
  "abi": [
    {
      "constant": true,
      "inputs": [],
      "name": "friendPublicKey",
      "outputs": [
        {
          "name": "",
          "type": "string"
        }
      ],
      "payable": false,
      "stateMutability": "view",
      "type": "function"
    },
    {
      "constant": true,
      "inputs": [],
      "name": "publicKey",
      "outputs": [
        {
          "name": "",
          "type": "string"
        }
      ],
      "payable": false,
      "stateMutability": "view",
      "type": "function"
    },
    {
      "constant": true,
      "inputs": [],
      "name": "friendContractAddress",
      "outputs": [
        {
          "name": "",
          "type": "address"
        }
      ],
      "payable": false,
      "stateMutability": "view",
      "type": "function"
    },
    {
      "constant": false,
      "inputs": [
        {
          "name": "_publicKey",
          "type": "string"
        }
      ],
      "name": "setMyPublicKey",
      "outputs": [],
      "payable": false,
      "stateMutability": "nonpayable",
      "type": "function"
    },
    {
      "constant": true,
      "inputs": [],
      "name": "getLastMessage",
      "outputs": [
        {
          "name": "",
          "type": "string"
        }
      ],
      "payable": false,
      "stateMutability": "view",
      "type": "function"
    },
    {
      "constant": false,
      "inputs": [
        {
          "name": "_friendContractAddress",
          "type": "address"
        }
      ],
      "name": "setFriend",
      "outputs": [],
      "payable": false,
      "stateMutability": "nonpayable",
      "type": "function"
    },
    {
      "constant": false,
      "inputs": [
        {
          "name": "_message",
          "type": "string"
        }
      ],
      "name": "sendMessageToFriend",
      "outputs": [],
      "payable": false,
      "stateMutability": "nonpayable",
      "type": "function"
    },
    {
      "constant": false,
      "inputs": [
        {
          "name": "_message",
          "type": "string"
        }
      ],
      "name": "recieveMessage",
      "outputs": [],
      "payable": false,
      "stateMutability": "nonpayable",
      "type": "function"
    },
    {
      "constant": false,
      "inputs": [],
      "name": "sendMyPublicKeyToFriend",
      "outputs": [],
      "payable": false,
      "stateMutability": "nonpayable",
      "type": "function"
    },
    {
      "constant": true,
      "inputs": [],
      "name": "returnMyPublicKey",
      "outputs": [
        {
          "name": "",
          "type": "string"
        }
      ],
      "payable": false,
      "stateMutability": "view",
      "type": "function"
    },
    {
      "constant": false,
      "inputs": [
        {
          "name": "_key",
          "type": "string"
        }
      ],
      "name": "saveFriendPublicKey",
      "outputs": [],
      "payable": false,
      "stateMutability": "nonpayable",
      "type": "function"
    }
  ],
  "bytecode": "0x608060405260206040519081016040528060008152506000908051906020019061002a92919061003d565b5034801561003757600080fd5b506100e2565b828054600181600116156101000203166002900490600052602060002090601f016020900481019282601f1061007e57805160ff19168380011785556100ac565b828001600101855582156100ac579182015b828111156100ab578251825591602001919060010190610090565b5b5090506100b991906100bd565b5090565b6100df91905b808211156100db5760008160009055506001016100c3565b5090565b90565b610be2806100f16000396000f3006080604052600436106100af576000357c0100000000000000000000000000000000000000000000000000000000900463ffffffff168063089c9964146100b457806313f16c53146100f75780631e6490ee14610160578063491830fe146101c9578063526bf76e1461025957806363ffab31146102e957806364adfcb714610379578063b56162ce146103e2578063b67c81cf146103f9578063bd6fb79e14610462578063fbaad071146104b9575b600080fd5b3480156100c057600080fd5b506100f5600480360381019080803573ffffffffffffffffffffffffffffffffffffffff169060200190929190505050610549565b005b34801561010357600080fd5b5061015e600480360381019080803590602001908201803590602001908080601f016020809104026020016040519081016040528093929190818152602001838380828437820191505050505050919291929050505061058d565b005b34801561016c57600080fd5b506101c7600480360381019080803590602001908201803590602001908080601f01602080910402602001604051908101604052809392919081815260200183838082843782019150505050505091929192905050506105cf565b005b3480156101d557600080fd5b506101de6105e9565b6040518080602001828103825283818151815260200191508051906020019080838360005b8381101561021e578082015181840152602081019050610203565b50505050905090810190601f16801561024b5780820380516001836020036101000a031916815260200191505b509250505060405180910390f35b34801561026557600080fd5b5061026e610687565b6040518080602001828103825283818151815260200191508051906020019080838360005b838110156102ae578082015181840152602081019050610293565b50505050905090810190601f1680156102db5780820380516001836020036101000a031916815260200191505b509250505060405180910390f35b3480156102f557600080fd5b506102fe610746565b6040518080602001828103825283818151815260200191508051906020019080838360005b8381101561033e578082015181840152602081019050610323565b50505050905090810190601f16801561036b5780820380516001836020036101000a031916815260200191505b509250505060405180910390f35b34801561038557600080fd5b506103e0600480360381019080803590602001908201803590602001908080601f01602080910402602001604051908101604052809392919081815260200183838082843782019150505050505091929192905050506107e4565b005b3480156103ee57600080fd5b506103f76108fb565b005b34801561040557600080fd5b50610460600480360381019080803590602001908201803590602001908080601f0160208091040260200160405190810160405280939291908181526020018383808284378201915050505050509192919290505050610a2f565b005b34801561046e57600080fd5b50610477610a49565b604051808273ffffffffffffffffffffffffffffffffffffffff1673ffffffffffffffffffffffffffffffffffffffff16815260200191505060405180910390f35b3480156104c557600080fd5b506104ce610a6f565b6040518080602001828103825283818151815260200191508051906020019080838360005b8381101561050e5780820151818401526020810190506104f3565b50505050905090810190601f16801561053b5780820380516001836020036101000a031916815260200191505b509250505060405180910390f35b80600260006101000a81548173ffffffffffffffffffffffffffffffffffffffff021916908373ffffffffffffffffffffffffffffffffffffffff16021790555050565b60018190806001815401808255809150509060018203906000526020600020016000909192909190915090805190602001906105ca929190610b11565b505050565b80600390805190602001906105e5929190610b11565b5050565b60038054600181600116156101000203166002900480601f01602080910402602001604051908101604052809291908181526020018280546001816001161561010002031660029004801561067f5780601f106106545761010080835404028352916020019161067f565b820191906000526020600020905b81548152906001019060200180831161066257829003601f168201915b505050505081565b606060018080805490500381548110151561069e57fe5b906000526020600020018054600181600116156101000203166002900480601f01602080910402602001604051908101604052809291908181526020018280546001816001161561010002031660029004801561073c5780601f106107115761010080835404028352916020019161073c565b820191906000526020600020905b81548152906001019060200180831161071f57829003601f168201915b5050505050905090565b60008054600181600116156101000203166002900480601f0160208091040260200160405190810160405280929190818152602001828054600181600116156101000203166002900480156107dc5780601f106107b1576101008083540402835291602001916107dc565b820191906000526020600020905b8154815290600101906020018083116107bf57829003601f168201915b505050505081565b6000600260009054906101000a900473ffffffffffffffffffffffffffffffffffffffff1690508073ffffffffffffffffffffffffffffffffffffffff166313f16c53836040518263ffffffff167c01000000000000000000000000000000000000000000000000000000000281526004018080602001828103825283818151815260200191508051906020019080838360005b83811015610893578082015181840152602081019050610878565b50505050905090810190601f1680156108c05780820380516001836020036101000a031916815260200191505b5092505050600060405180830381600087803b1580156108df57600080fd5b505af11580156108f3573d6000803e3d6000fd5b505050505050565b6000600260009054906101000a900473ffffffffffffffffffffffffffffffffffffffff1690508073ffffffffffffffffffffffffffffffffffffffff16631e6490ee60006040518263ffffffff167c010000000000000000000000000000000000000000000000000000000002815260040180806020018281038252838181546001816001161561010002031660029004815260200191508054600181600116156101000203166002900480156109f45780601f106109c9576101008083540402835291602001916109f4565b820191906000526020600020905b8154815290600101906020018083116109d757829003601f168201915b505092505050600060405180830381600087803b158015610a1457600080fd5b505af1158015610a28573d6000803e3d6000fd5b5050505050565b8060009080519060200190610a45929190610b11565b5050565b600260009054906101000a900473ffffffffffffffffffffffffffffffffffffffff1681565b606060008054600181600116156101000203166002900480601f016020809104026020016040519081016040528092919081815260200182805460018160011615610100020316600290048015610b075780601f10610adc57610100808354040283529160200191610b07565b820191906000526020600020905b815481529060010190602001808311610aea57829003601f168201915b5050505050905090565b828054600181600116156101000203166002900490600052602060002090601f016020900481019282601f10610b5257805160ff1916838001178555610b80565b82800160010185558215610b80579182015b82811115610b7f578251825591602001919060010190610b64565b5b509050610b8d9190610b91565b5090565b610bb391905b80821115610baf576000816000905550600101610b97565b5090565b905600a165627a7a72305820bf16982e53b8ee30436447203edb600f111dd9b70d5f63f8b5ecdedb14dd9fa10029",
  "source": "pragma solidity ^0.4.20;\n\n\ncontract EncryptionInterface {\n    function recieveMessage(string _message) public;\n    function saveFriendPublicKey(string _key) public;\n}\n\ncontract Encryption {\n    \n    string public publicKey = \"\";\n    string[] chats;\n    address public friendContractAddress;\n    string public friendPublicKey;\n\n    function setMyPublicKey(string _publicKey) public  {\n        publicKey = _publicKey;\n    }\n    \n    function getLastMessage() public constant returns (string) {\n        return chats[chats.length - 1];\n    }\n    \n    function setFriend(address _friendContractAddress) public {\n        friendContractAddress = _friendContractAddress;\n    }\n    \n    function sendMessageToFriend(string _message) public {\n        EncryptionInterface encryptionTestInterface = EncryptionInterface(friendContractAddress);\n        encryptionTestInterface.recieveMessage(_message);\n    }\n    \n    function recieveMessage(string _message) public {\n        chats.push(_message);\n    }\n    \n    function sendMyPublicKeyToFriend() public {\n        EncryptionInterface encryptionTestInterface = EncryptionInterface(friendContractAddress);\n        encryptionTestInterface.saveFriendPublicKey(publicKey);\n    }\n    \n    function returnMyPublicKey() public constant returns (string) {\n        return publicKey;\n    }\n    \n    function saveFriendPublicKey(string _key) public {\n        friendPublicKey = _key;\n    }\n    \n}\n\n\n",
  "sourcePath": "/Users/kay4444/Documents/splyt_testing/contracts/Encryption.sol",
  "compiler": {
    "name": "solc",
    "version": "0.4.23+commit.124ca40d.Emscripten.clang"
  },
  "schemaVersion": "2.0.0",
  "updatedAt": "2018-05-03T16:27:10.463Z"
}