{
  "contractName": "ERC20",
  "abi": [
    {
      "constant": true,
      "inputs": [],
      "name": "name",
      "outputs": [
        {
          "name": "",
          "type": "string"
        }
      ],
      "payable": false,
      "stateMutability": "view",
      "type": "function"
    },
    {
      "constant": true,
      "inputs": [],
      "name": "decimals",
      "outputs": [
        {
          "name": "",
          "type": "uint8"
        }
      ],
      "payable": false,
      "stateMutability": "view",
      "type": "function"
    },
    {
      "constant": true,
      "inputs": [],
      "name": "symbol",
      "outputs": [
        {
          "name": "",
          "type": "string"
        }
      ],
      "payable": false,
      "stateMutability": "view",
      "type": "function"
    },
    {
      "constant": true,
      "inputs": [],
      "name": "totalMinted",
      "outputs": [
        {
          "name": "",
          "type": "uint256"
        }
      ],
      "payable": false,
      "stateMutability": "view",
      "type": "function"
    },
    {
      "inputs": [],
      "payable": false,
      "stateMutability": "nonpayable",
      "type": "constructor"
    },
    {
      "anonymous": false,
      "inputs": [
        {
          "indexed": true,
          "name": "_from",
          "type": "address"
        },
        {
          "indexed": true,
          "name": "_to",
          "type": "address"
        },
        {
          "indexed": false,
          "name": "_value",
          "type": "uint256"
        }
      ],
      "name": "TransferEvent",
      "type": "event"
    },
    {
      "anonymous": false,
      "inputs": [
        {
          "indexed": true,
          "name": "_owner",
          "type": "address"
        },
        {
          "indexed": true,
          "name": "_spender",
          "type": "address"
        },
        {
          "indexed": false,
          "name": "_value",
          "type": "uint256"
        }
      ],
      "name": "ApprovalEvent",
      "type": "event"
    },
    {
      "constant": true,
      "inputs": [],
      "name": "totalSupply",
      "outputs": [
        {
          "name": "",
          "type": "uint256"
        }
      ],
      "payable": false,
      "stateMutability": "pure",
      "type": "function"
    },
    {
      "constant": true,
      "inputs": [
        {
          "name": "_owner",
          "type": "address"
        }
      ],
      "name": "balanceOf",
      "outputs": [
        {
          "name": "balance",
          "type": "uint256"
        }
      ],
      "payable": false,
      "stateMutability": "view",
      "type": "function"
    },
    {
      "constant": false,
      "inputs": [
        {
          "name": "_to",
          "type": "address"
        },
        {
          "name": "_value",
          "type": "uint256"
        }
      ],
      "name": "transfer",
      "outputs": [
        {
          "name": "success",
          "type": "bool"
        }
      ],
      "payable": false,
      "stateMutability": "nonpayable",
      "type": "function"
    },
    {
      "constant": false,
      "inputs": [
        {
          "name": "_from",
          "type": "address"
        },
        {
          "name": "_to",
          "type": "address"
        },
        {
          "name": "_value",
          "type": "uint256"
        }
      ],
      "name": "transferFrom",
      "outputs": [
        {
          "name": "success",
          "type": "bool"
        }
      ],
      "payable": false,
      "stateMutability": "nonpayable",
      "type": "function"
    },
    {
      "constant": false,
      "inputs": [
        {
          "name": "_spender",
          "type": "address"
        },
        {
          "name": "_value",
          "type": "uint256"
        }
      ],
      "name": "approve",
      "outputs": [
        {
          "name": "success",
          "type": "bool"
        }
      ],
      "payable": false,
      "stateMutability": "nonpayable",
      "type": "function"
    },
    {
      "constant": true,
      "inputs": [
        {
          "name": "_owner",
          "type": "address"
        },
        {
          "name": "_spender",
          "type": "address"
        }
      ],
      "name": "allowance",
      "outputs": [
        {
          "name": "remaining",
          "type": "uint256"
        }
      ],
      "payable": false,
      "stateMutability": "view",
      "type": "function"
    },
    {
      "constant": false,
      "inputs": [
        {
          "name": "_user",
          "type": "address"
        }
      ],
      "name": "initUser",
      "outputs": [],
      "payable": false,
      "stateMutability": "nonpayable",
      "type": "function"
    },
    {
      "constant": true,
      "inputs": [],
      "name": "getBalance",
      "outputs": [
        {
          "name": "",
          "type": "uint256"
        }
      ],
      "payable": false,
      "stateMutability": "view",
      "type": "function"
    }
  ],
  "bytecode": "0x608060405234801561001057600080fd5b506100293361002e640100000000026401000000009004565b61008b565b615014600160008373ffffffffffffffffffffffffffffffffffffffff1673ffffffffffffffffffffffffffffffffffffffff16815260200190815260200160002060000181905550615014600080828254019250508190555050565b610a5b8061009a6000396000f3006080604052600436106100ba576000357c0100000000000000000000000000000000000000000000000000000000900463ffffffff16806306fdde03146100bf578063095ea7b31461014f57806312065fe0146101b457806318160ddd146101df57806323a78eb51461020a57806323b872dd1461024d578063313ce567146102d257806370a082311461030357806395d89b411461035a578063a2309ff8146103ea578063a9059cbb14610415578063dd62ed3e1461047a575b600080fd5b3480156100cb57600080fd5b506100d46104f1565b6040518080602001828103825283818151815260200191508051906020019080838360005b838110156101145780820151818401526020810190506100f9565b50505050905090810190601f1680156101415780820380516001836020036101000a031916815260200191505b509250505060405180910390f35b34801561015b57600080fd5b5061019a600480360381019080803573ffffffffffffffffffffffffffffffffffffffff1690602001909291908035906020019092919050505061052a565b604051808215151515815260200191505060405180910390f35b3480156101c057600080fd5b506101c961061f565b6040518082815260200191505060405180910390f35b3480156101eb57600080fd5b506101f4610643565b6040518082815260200191505060405180910390f35b34801561021657600080fd5b5061024b600480360381019080803573ffffffffffffffffffffffffffffffffffffffff169060200190929190505050610650565b005b34801561025957600080fd5b506102b8600480360381019080803573ffffffffffffffffffffffffffffffffffffffff169060200190929190803573ffffffffffffffffffffffffffffffffffffffff169060200190929190803590602001909291905050506106ad565b604051808215151515815260200191505060405180910390f35b3480156102de57600080fd5b506102e7610814565b604051808260ff1660ff16815260200191505060405180910390f35b34801561030f57600080fd5b50610344600480360381019080803573ffffffffffffffffffffffffffffffffffffffff169060200190929190505050610819565b6040518082815260200191505060405180910390f35b34801561036657600080fd5b5061036f610865565b6040518080602001828103825283818151815260200191508051906020019080838360005b838110156103af578082015181840152602081019050610394565b50505050905090810190601f1680156103dc5780820380516001836020036101000a031916815260200191505b509250505060405180910390f35b3480156103f657600080fd5b506103ff61089e565b6040518082815260200191505060405180910390f35b34801561042157600080fd5b50610460600480360381019080803573ffffffffffffffffffffffffffffffffffffffff169060200190929190803590602001909291905050506108a4565b604051808215151515815260200191505060405180910390f35b34801561048657600080fd5b506104db600480360381019080803573ffffffffffffffffffffffffffffffffffffffff169060200190929190803573ffffffffffffffffffffffffffffffffffffffff1690602001909291905050506109a5565b6040518082815260200191505060405180910390f35b6040805190810160405280601781526020017f53706c7974204175746f6e6f6d6f757320546f6b656e7300000000000000000081525081565b600081600160003373ffffffffffffffffffffffffffffffffffffffff1673ffffffffffffffffffffffffffffffffffffffff16815260200190815260200160002060010160008573ffffffffffffffffffffffffffffffffffffffff1673ffffffffffffffffffffffffffffffffffffffff168152602001908152602001600020819055508273ffffffffffffffffffffffffffffffffffffffff163373ffffffffffffffffffffffffffffffffffffffff167f08245b82180b1f5e514e503c113ab0197093b2cb542145037c0a31b54b1d998e846040518082815260200191505060405180910390a36001905092915050565b6000803090508073ffffffffffffffffffffffffffffffffffffffff163191505090565b600064017f6319e5905090565b615014600160008373ffffffffffffffffffffffffffffffffffffffff1673ffffffffffffffffffffffffffffffffffffffff16815260200190815260200160002060000181905550615014600080828254019250508190555050565b600081600160008673ffffffffffffffffffffffffffffffffffffffff1673ffffffffffffffffffffffffffffffffffffffff168152602001908152602001600020600001541015156108085781600160008673ffffffffffffffffffffffffffffffffffffffff1673ffffffffffffffffffffffffffffffffffffffff1681526020019081526020016000206000016000828254039250508190555081600160008573ffffffffffffffffffffffffffffffffffffffff1673ffffffffffffffffffffffffffffffffffffffff168152602001908152602001600020600001600082825401925050819055508273ffffffffffffffffffffffffffffffffffffffff168473ffffffffffffffffffffffffffffffffffffffff167feaf1c4b3ce0f4f62a2bae7eb3e68225c75f7e6ff4422073b7437b9a78d25f170846040518082815260200191505060405180910390a36001905061080d565b600090505b9392505050565b600081565b6000600160008373ffffffffffffffffffffffffffffffffffffffff1673ffffffffffffffffffffffffffffffffffffffff168152602001908152602001600020600001549050919050565b6040805190810160405280600381526020017f534154000000000000000000000000000000000000000000000000000000000081525081565b60005481565b600081600160003373ffffffffffffffffffffffffffffffffffffffff1673ffffffffffffffffffffffffffffffffffffffff1681526020019081526020016000206000015410151561099a5781600160003373ffffffffffffffffffffffffffffffffffffffff1673ffffffffffffffffffffffffffffffffffffffff1681526020019081526020016000206000016000828254039250508190555081600160008573ffffffffffffffffffffffffffffffffffffffff1673ffffffffffffffffffffffffffffffffffffffff168152602001908152602001600020600001600082825401925050819055506001905061099f565b600090505b92915050565b6000600160008473ffffffffffffffffffffffffffffffffffffffff1673ffffffffffffffffffffffffffffffffffffffff16815260200190815260200160002060010160008373ffffffffffffffffffffffffffffffffffffffff1673ffffffffffffffffffffffffffffffffffffffff168152602001908152602001600020549050929150505600a165627a7a72305820d12e4278693b7ecdb0b5dbd405a67f6638278fdabb5f516133c6ba0185cd92d80029",
  "source": "pragma solidity ^0.4.21;\n\ncontract ERC20 {\n    \n    string public constant name = \"Splyt Autonomous Tokens\";\n    string public constant symbol = \"SAT\";\n    uint8 public constant decimals = 0; // We don't use decimals as of now\n    uint constant totalTokensAllowed = 6432168421; // ~6.4 billion\n    uint public totalMinted;\n    \n    \n    struct Meta {\n        uint balance;\n        mapping(address => uint) allowance;\n    }\n    mapping(address => Meta) user;\n    \n    modifier onlyOnce() {\n        if(user[msg.sender].balance == 0) _;\n    }\n    \n    constructor() public {\n        initUser(msg.sender);\n    }\n    \n    function totalSupply() public pure returns (uint) {\n        return totalTokensAllowed;\n    }\n    \n    function balanceOf(address _owner) public constant returns (uint balance) {\n        return user[_owner].balance;\n    }\n    \n    function transfer(address _to, uint _value) public returns (bool success) {\n        \n        if (user[msg.sender].balance >= _value) {\n            user[msg.sender].balance -= _value;\n            user[_to].balance += _value;\n            return true;\n        }\n        return false;\n    }\n    \n    function transferFrom(address _from, address _to, uint _value) public returns (bool success) {\n        \n        if (user[_from].balance >= _value) {\n            user[_from].balance -= _value;\n            user[_to].balance += _value;\n            emit TransferEvent(_from, _to, _value);\n            return true;\n        }\n        return false;\n    }\n    \n    function approve(address _spender, uint _value) public returns (bool success) {\n        user[msg.sender].allowance[_spender] = _value;\n        emit ApprovalEvent(msg.sender, _spender, _value);\n        return true;\n    }\n    \n    function allowance(address _owner, address _spender) public constant returns (uint remaining) {\n        return user[_owner].allowance[_spender];\n    }\n    \n    /**\n     *  Splyt specific functionality\n    */\n    \n    // Temperory give each user 2000 tokens for free\n    function initUser(address _user) public {\n        user[_user].balance = 20500;\n        totalMinted += 20500;\n    }\n    \n    // Get ether balance of this contract\n    function getBalance() constant public returns (uint) {\n        address a = this;\n        return a.balance;\n    }\n    \n    event TransferEvent(address indexed _from, address indexed _to, uint _value);\n    event ApprovalEvent(address indexed _owner, address indexed _spender, uint _value);\n}",
  "sourcePath": "/Users/kay4444/Documents/splyt_testing/contracts/ERC20.sol",
  "compiler": {
    "name": "solc",
    "version": "0.4.23+commit.124ca40d.Emscripten.clang"
  },
  "schemaVersion": "2.0.0",
  "updatedAt": "2018-05-03T16:27:10.461Z"
}