{
  "contractName": "MigrateSats",
  "abi": [
    {
      "constant": true,
      "inputs": [],
      "name": "track",
      "outputs": [
        {
          "name": "",
          "type": "uint256"
        }
      ],
      "payable": false,
      "stateMutability": "view",
      "type": "function"
    },
    {
      "constant": false,
      "inputs": [],
      "name": "migrate",
      "outputs": [],
      "payable": false,
      "stateMutability": "nonpayable",
      "type": "function"
    }
  ],
  "bytecode": "0x6080604052610c40604051908101604052807302baad642568432ffa33722c71b97a90aeb16db573ffffffffffffffffffffffffffffffffffffffff168152602001730991593970efe3dd10af7e9a17cb99121535851373ffffffffffffffffffffffffffffffffffffffff168152602001730d02d87dbd44dd0e9fe6f6558e5312e7117f1b0173ffffffffffffffffffffffffffffffffffffffff168152602001730e3e4e48a80b6724e395fc001d65b183a45668a973ffffffffffffffffffffffffffffffffffffffff168152602001730fd7f57482961b7f4a5aa7e95e7e2d342bef8baf73ffffffffffffffffffffffffffffffffffffffff1681526020017313a420480467cf12dad05fa649667131c099f1fd73ffffffffffffffffffffffffffffffffffffffff168152602001731640a744a3f8bd96d347dee59438f709f8e310f573ffffffffffffffffffffffffffffffffffffffff16815260200173170a0044bbc366f88024fa326c39eaf69459f00373ffffffffffffffffffffffffffffffffffffffff1681526020017317f7ab08036d201db3ea1cf007206a71db43e84873ffffffffffffffffffffffffffffffffffffffff1681526020017318bd8762e458671710fd0b57b6e790bf5450812273ffffffffffffffffffffffffffffffffffffffff16815260200173193571ae88c7947d094a245363bcd62521aa658a73ffffffffffffffffffffffffffffffffffffffff168152602001731a163c66e3bce235322e9b965760a5aeddf8482673ffffffffffffffffffffffffffffffffffffffff168152602001731cdb2550de6e63307c21aa90d1146a867636ce8a73ffffffffffffffffffffffffffffffffffffffff168152602001731e3a80e511ed36636c8bc12f9e00602710eb921c73ffffffffffffffffffffffffffffffffffffffff1681526020017321befbedc6a47ca28e39f3e13193d54fe25fe06c73ffffffffffffffffffffffffffffffffffffffff1681526020017326ea884f7c9004276ab20bd7094bd7e4b15841de73ffffffffffffffffffffffffffffffffffffffff1681526020017328545bc1a248827db2a0ac78c9988bce32c3ecb573ffffffffffffffffffffffffffffffffffffffff168152602001732a215c07fdc030d8d78669af0ddc7b7da137400d73ffffffffffffffffffffffffffffffffffffffff1681526020017331141867614bea158177565cdaafb9d8b2afc37573ffffffffffffffffffffffffffffffffffffffff168152602001733197fe2b3556d1653d48e401771c1bd3e8b33dec73ffffffffffffffffffffffffffffffffffffffff1681526020017331f2ae92057a7123ef0e490a998e90d4c492b1d373ffffffffffffffffffffffffffffffffffffffff168152602001733608fb4e399c011e7002dc21f218d9431889dfb673ffffffffffffffffffffffffffffffffffffffff16815260200173360afb3c2e27c0150dbeb44c805b9c7236d8435b73ffffffffffffffffffffffffffffffffffffffff1681526020017337fe81637f8baba7e571d9b78fd0bf7bc3774eb373ffffffffffffffffffffffffffffffffffffffff1681526020017339f1c293a2d13e058040b3a90501e6feddef7e2273ffffffffffffffffffffffffffffffffffffffff168152602001733d955ca8d5d111168ac303b5df0a1eb7d3aab60173ffffffffffffffffffffffffffffffffffffffff16815260200173406c4500be8ee4644e4e7ddf895ff0772703acb973ffffffffffffffffffffffffffffffffffffffff1681526020017343c441628781b0ffec9477eef645163c5427d40873ffffffffffffffffffffffffffffffffffffffff168152602001734755e56106ef69866d0e320c7c83d3bfcd810ba673ffffffffffffffffffffffffffffffffffffffff168152602001734b220c0b392da9d4e39b22a315f2d4f25756263573ffffffffffffffffffffffffffffffffffffffff168152602001734cf4ae6df79fe3cddf0dd210a7c2c152476edadf73ffffffffffffffffffffffffffffffffffffffff168152602001734de5e911bab66be8e1da9488ca590f50c74942c573ffffffffffffffffffffffffffffffffffffffff168152602001734fe0151b64577a63114b322c7a35044fabaea5e073ffffffffffffffffffffffffffffffffffffffff1681526020017351738cdad0bba06fb6be44c851d45219b97c480f73ffffffffffffffffffffffffffffffffffffffff1681526020017354ae6912b7ebff289f55a0d5b4da4d2a7d6f06ae73ffffffffffffffffffffffffffffffffffffffff1681526020017355940b5104990b875511f82e096887133c08bd2e73ffffffffffffffffffffffffffffffffffffffff1681526020017355a4c72cde63b3df83b06ac2d1b053d6e41cc3a073ffffffffffffffffffffffffffffffffffffffff168152602001735697b3ae3f697205552ca528e07945bee49bb5a473ffffffffffffffffffffffffffffffffffffffff16815260200173582a1a3a3b202e2c9e16c4168dce0eec227e054873ffffffffffffffffffffffffffffffffffffffff168152602001735a28264600b76637f7d660fccb4899ee4b0ce79673ffffffffffffffffffffffffffffffffffffffff168152602001735e178c43c4ebdf838bb0d8a0af85da4ee8d4610573ffffffffffffffffffffffffffffffffffffffff168152602001735e6732760ac78214fc0ffc6348d5fc4ce49796a873ffffffffffffffffffffffffffffffffffffffff168152602001736469a0b303da96f9c0f30b45b4bee446441f2ab673ffffffffffffffffffffffffffffffffffffffff168152602001736479e447d283b52273942f05d279e1d7cb6e04b473ffffffffffffffffffffffffffffffffffffffff1681526020017367248e68efdd65eeac0fda2794b8458d2f6c964d73ffffffffffffffffffffffffffffffffffffffff1681526020017367bb56651ff9236b42ec29b8ef297c34001cb9fd73ffffffffffffffffffffffffffffffffffffffff168152602001736868fb46558f12fb334345898a6e503018685c9973ffffffffffffffffffffffffffffffffffffffff1681526020017368ef248d1cb0d7f509826cbbef6e9bcc56cc3a2b73ffffffffffffffffffffffffffffffffffffffff1681526020017371aaed8e835aa2ae12db1f9e21e2056f07cf35f973ffffffffffffffffffffffffffffffffffffffff16815260200173741bcd8b44639070c6a9f0eaa0e7e5469a4c247573ffffffffffffffffffffffffffffffffffffffff168152602001737a787283ed311847796356b0e244b5a37c38e5ac73ffffffffffffffffffffffffffffffffffffffff168152602001737bbda015c66a564ea6df0709a9f17f8ceea2e6d573ffffffffffffffffffffffffffffffffffffffff168152602001737dcd2bc136ce8677f9cc0ba5adc06374d037515773ffffffffffffffffffffffffffffffffffffffff16815260200173812da750368822e4667df9a8b544b7c2376c8bff73ffffffffffffffffffffffffffffffffffffffff16815260200173814debc4e30a8dbe4b2e067136c67df6ee0dca5d73ffffffffffffffffffffffffffffffffffffffff1681526020017389fcf1e784525b9b65b480d495efb76161723da573ffffffffffffffffffffffffffffffffffffffff168152602001738e5de952c98afa96710f3cc1bed0de44210c808873ffffffffffffffffffffffffffffffffffffffff168152602001739365b6f1ad66c46f5c649f4ac309efb6d7cac81973ffffffffffffffffffffffffffffffffffffffff16815260200173943c3ee9e37b52ca53707dab27eb544bd444e45073ffffffffffffffffffffffffffffffffffffffff1681526020017398b5cfed3a361ce5f41469898ca97c242c693f4c73ffffffffffffffffffffffffffffffffffffffff168152602001739a214e7009ec3e625ac99f50d2b32e41e1f6d10e73ffffffffffffffffffffffffffffffffffffffff168152602001739db8d4c6c0d54b2d6724d8c07004b4000f4fa8dd73ffffffffffffffffffffffffffffffffffffffff168152602001739e68efbf1a6f26453b3635090b493709bb2e458073ffffffffffffffffffffffffffffffffffffffff16815260200173a11f8ad6104f57bee3995e927a8b250f9286b92873ffffffffffffffffffffffffffffffffffffffff16815260200173a19395894e84538755854c9dbe39e49f666c16b473ffffffffffffffffffffffffffffffffffffffff16815260200173a23aa58ec1dec0cf0333cea72825176dd23ec82f73ffffffffffffffffffffffffffffffffffffffff16815260200173a23be4664acb44e5c47a3579755a8036c15c610b73ffffffffffffffffffffffffffffffffffffffff16815260200173a446d1cdd26fd26a54a9a4729b5640cbcd500d6873ffffffffffffffffffffffffffffffffffffffff16815260200173a6370f0b60a0dbc40162b33c58e77851ffa16c8e73ffffffffffffffffffffffffffffffffffffffff16815260200173b4cb76695141fa83022d94876f1a37288ffa162573ffffffffffffffffffffffffffffffffffffffff16815260200173b656dfe1b3afdcdfaf174313e39e7d42529b141573ffffffffffffffffffffffffffffffffffffffff16815260200173b84792b7c5c8ace70648289d36e6d214096c502373ffffffffffffffffffffffffffffffffffffffff16815260200173b88906f9fbef2357a10bd1ac08b34e76c450c4dd73ffffffffffffffffffffffffffffffffffffffff16815260200173b8b099a70f4243dd3d59a501b683dff3ac707ee973ffffffffffffffffffffffffffffffffffffffff16815260200173bd3787a65f80f09c04a48aefaed4319c7e0b6fb073ffffffffffffffffffffffffffffffffffffffff16815260200173c0bf0c8e06a7fba88649e1056cef636187f2c96573ffffffffffffffffffffffffffffffffffffffff16815260200173c150f8b2c16647e9ce304207b397657e61ac331373ffffffffffffffffffffffffffffffffffffffff16815260200173c1c3ecb8218b8e27e9ec2df7aca930fe0a91a97673ffffffffffffffffffffffffffffffffffffffff16815260200173c85539758c4f57c9809d717938b300db099f680373ffffffffffffffffffffffffffffffffffffffff16815260200173cd0bad1e9d03c8e0ff108462d0597f427a759d6773ffffffffffffffffffffffffffffffffffffffff16815260200173d52b0cf8a3f7c1ece3a573ebdd2f64b01e61db2e73ffffffffffffffffffffffffffffffffffffffff16815260200173d770d65e08239258c6f5a367ef53b236840e6f8073ffffffffffffffffffffffffffffffffffffffff16815260200173d7e167cbdfb0428af9ffc74870c68b496bc24de173ffffffffffffffffffffffffffffffffffffffff16815260200173d894aad387d6de1d8d96eacb3ba18dc5938a2dd373ffffffffffffffffffffffffffffffffffffffff16815260200173d9e5e4bde24faa2b277ab2be78c95b9ae24259a873ffffffffffffffffffffffffffffffffffffffff16815260200173da7cb9837029935210d3f66d357a3fe27e17a70073ffffffffffffffffffffffffffffffffffffffff16815260200173dafc3ef763314959d7defe847d30e8a3c7f1ce2173ffffffffffffffffffffffffffffffffffffffff16815260200173dd7603356da3ea128c15a9c8360ff8be7589803d73ffffffffffffffffffffffffffffffffffffffff16815260200173e42d4cc22fb36cb521d41b3fc908c50f4a35827b73ffffffffffffffffffffffffffffffffffffffff16815260200173e4757ee33840c48fe76e2a1e940da52f520eb52073ffffffffffffffffffffffffffffffffffffffff16815260200173e4e2eff33b0e0585e61fd3877bfde7b572ddc9b373ffffffffffffffffffffffffffffffffffffffff16815260200173e884674870bd33de6255c4708aeb2eb0ef80119273ffffffffffffffffffffffffffffffffffffffff16815260200173e8a8e840ebb5bec93a2b933963342fbef7071d8373ffffffffffffffffffffffffffffffffffffffff16815260200173e9805e8a8d344ad38f52790dddcf56f9b009dc7773ffffffffffffffffffffffffffffffffffffffff16815260200173ea64e0e6aed031328763b116b0cf243b118e961173ffffffffffffffffffffffffffffffffffffffff16815260200173ef1b1d0d4c22ddecd7c235aa017e76694b659bb973ffffffffffffffffffffffffffffffffffffffff16815260200173ef401cf116b72d9e81f2c49f1e4225a20bbe7fa773ffffffffffffffffffffffffffffffffffffffff16815260200173f606a61e2fbc2db9b0b74f26c45469509dfb33ac73ffffffffffffffffffffffffffffffffffffffff16815250600090606261127f9291906112ec565b507319a22419c418cf0884424760e8577f3429be5e0a600160006101000a81548173ffffffffffffffffffffffffffffffffffffffff021916908373ffffffffffffffffffffffffffffffffffffffff16021790555060006002553480156112e657600080fd5b506113b9565b828054828255906000526020600020908101928215611365579160200282015b828111156113645782518260006101000a81548173ffffffffffffffffffffffffffffffffffffffff021916908373ffffffffffffffffffffffffffffffffffffffff1602179055509160200191906001019061130c565b5b5090506113729190611376565b5090565b6113b691905b808211156113b257600081816101000a81549073ffffffffffffffffffffffffffffffffffffffff02191690555060010161137c565b5090565b90565b61020d806113c86000396000f30060806040526004361061004c576000357c0100000000000000000000000000000000000000000000000000000000900463ffffffff1680638fd3ab80146100515780639d0ac07b14610068575b600080fd5b34801561005d57600080fd5b50610066610093565b005b34801561007457600080fd5b5061007d6101db565b6040518082815260200191505060405180910390f35b600080600091505b600a8210156101d757600160009054906101000a900473ffffffffffffffffffffffffffffffffffffffff1690508073ffffffffffffffffffffffffffffffffffffffff166323a78eb5600060025485018154811015156100f857fe5b9060005260206000200160009054906101000a900473ffffffffffffffffffffffffffffffffffffffff166040518263ffffffff167c0100000000000000000000000000000000000000000000000000000000028152600401808273ffffffffffffffffffffffffffffffffffffffff1673ffffffffffffffffffffffffffffffffffffffff168152602001915050600060405180830381600087803b1580156101a157600080fd5b505af11580156101b5573d6000803e3d6000fd5b505050506001600260008282540192505081905550818060010192505061009b565b5050565b600254815600a165627a7a72305820a1aa73aafb329f52884cc10f8b1b42165fc3c6018ad665c71b15534f8be9a2a20029",
  "source": "pragma solidity ^0.4.21;\n\ncontract SatTokenInterface {\n    \n    function initUser(address userWallet) public;\n}\n\n// This contract gives out token to all existing users. update the users array as necessary\n\ncontract MigrateSats {\n    \n    address[] users = [0x02baad642568432ffa33722c71b97a90aeb16db5, 0x0991593970efe3dd10af7e9a17cb991215358513, 0x0d02d87dbd44dd0e9fe6f6558e5312e7117f1b01, 0x0e3e4e48a80b6724e395fc001d65b183a45668a9, 0x0fd7f57482961b7f4a5aa7e95e7e2d342bef8baf, 0x13a420480467cf12dad05fa649667131c099f1fd, 0x1640a744a3f8bd96d347dee59438f709f8e310f5, 0x170a0044bbc366f88024fa326c39eaf69459f003, 0x17f7ab08036d201db3ea1cf007206a71db43e848, 0x18bd8762e458671710fd0b57b6e790bf54508122, 0x193571ae88c7947d094a245363bcd62521aa658a, 0x1a163c66e3bce235322e9b965760a5aeddf84826, 0x1cdb2550de6e63307c21aa90d1146a867636ce8a, 0x1e3a80e511ed36636c8bc12f9e00602710eb921c, 0x21befbedc6a47ca28e39f3e13193d54fe25fe06c, 0x26ea884f7c9004276ab20bd7094bd7e4b15841de, 0x28545bc1a248827db2a0ac78c9988bce32c3ecb5, 0x2a215c07fdc030d8d78669af0ddc7b7da137400d, 0x31141867614bea158177565cdaafb9d8b2afc375, 0x3197fe2b3556d1653d48e401771c1bd3e8b33dec, 0x31f2ae92057a7123ef0e490a998e90d4c492b1d3, 0x3608fb4e399c011e7002dc21f218d9431889dfb6, 0x360afb3c2e27c0150dbeb44c805b9c7236d8435b, 0x37fe81637f8baba7e571d9b78fd0bf7bc3774eb3, 0x39f1c293a2d13e058040b3a90501e6feddef7e22, 0x3d955ca8d5d111168ac303b5df0a1eb7d3aab601, 0x406c4500be8ee4644e4e7ddf895ff0772703acb9, 0x43c441628781b0ffec9477eef645163c5427d408, 0x4755e56106ef69866d0e320c7c83d3bfcd810ba6, 0x4b220c0b392da9d4e39b22a315f2d4f257562635, 0x4cf4ae6df79fe3cddf0dd210a7c2c152476edadf, 0x4de5e911bab66be8e1da9488ca590f50c74942c5, 0x4fe0151b64577a63114b322c7a35044fabaea5e0, 0x51738cdad0bba06fb6be44c851d45219b97c480f, 0x54ae6912b7ebff289f55a0d5b4da4d2a7d6f06ae, 0x55940b5104990b875511f82e096887133c08bd2e, 0x55a4c72cde63b3df83b06ac2d1b053d6e41cc3a0, 0x5697b3ae3f697205552ca528e07945bee49bb5a4, 0x582a1a3a3b202e2c9e16c4168dce0eec227e0548, 0x5a28264600b76637f7d660fccb4899ee4b0ce796, 0x5e178c43c4ebdf838bb0d8a0af85da4ee8d46105, 0x5e6732760ac78214fc0ffc6348d5fc4ce49796a8, 0x6469a0b303da96f9c0f30b45b4bee446441f2ab6, 0x6479e447d283b52273942f05d279e1d7cb6e04b4, 0x67248e68efdd65eeac0fda2794b8458d2f6c964d, 0x67bb56651ff9236b42ec29b8ef297c34001cb9fd, 0x6868fb46558f12fb334345898a6e503018685c99, 0x68ef248d1cb0d7f509826cbbef6e9bcc56cc3a2b, 0x71aaed8e835aa2ae12db1f9e21e2056f07cf35f9, 0x741bcd8b44639070c6a9f0eaa0e7e5469a4c2475, 0x7a787283ed311847796356b0e244b5a37c38e5ac, 0x7bbda015c66a564ea6df0709a9f17f8ceea2e6d5, 0x7dcd2bc136ce8677f9cc0ba5adc06374d0375157, 0x812da750368822e4667df9a8b544b7c2376c8bff, 0x814debc4e30a8dbe4b2e067136c67df6ee0dca5d, 0x89fcf1e784525b9b65b480d495efb76161723da5, 0x8e5de952c98afa96710f3cc1bed0de44210c8088, 0x9365b6f1ad66c46f5c649f4ac309efb6d7cac819, 0x943c3ee9e37b52ca53707dab27eb544bd444e450, 0x98b5cfed3a361ce5f41469898ca97c242c693f4c, 0x9a214e7009ec3e625ac99f50d2b32e41e1f6d10e, 0x9db8d4c6c0d54b2d6724d8c07004b4000f4fa8dd, 0x9e68efbf1a6f26453b3635090b493709bb2e4580, 0xa11f8ad6104f57bee3995e927a8b250f9286b928, 0xa19395894e84538755854c9dbe39e49f666c16b4, 0xa23aa58ec1dec0cf0333cea72825176dd23ec82f, 0xa23be4664acb44e5c47a3579755a8036c15c610b, 0xa446d1cdd26fd26a54a9a4729b5640cbcd500d68, 0xa6370f0b60a0dbc40162b33c58e77851ffa16c8e, 0xb4cb76695141fa83022d94876f1a37288ffa1625, 0xb656dfe1b3afdcdfaf174313e39e7d42529b1415, 0xb84792b7c5c8ace70648289d36e6d214096c5023, 0xb88906f9fbef2357a10bd1ac08b34e76c450c4dd, 0xb8b099a70f4243dd3d59a501b683dff3ac707ee9, 0xbd3787a65f80f09c04a48aefaed4319c7e0b6fb0, 0xc0bf0c8e06a7fba88649e1056cef636187f2c965, 0xc150f8b2c16647e9ce304207b397657e61ac3313, 0xc1c3ecb8218b8e27e9ec2df7aca930fe0a91a976, 0xc85539758c4f57c9809d717938b300db099f6803, 0xcd0bad1e9d03c8e0ff108462d0597f427a759d67, 0xd52b0cf8a3f7c1ece3a573ebdd2f64b01e61db2e, 0xd770d65e08239258c6f5a367ef53b236840e6f80, 0xd7e167cbdfb0428af9ffc74870c68b496bc24de1, 0xd894aad387d6de1d8d96eacb3ba18dc5938a2dd3, 0xd9e5e4bde24faa2b277ab2be78c95b9ae24259a8, 0xda7cb9837029935210d3f66d357a3fe27e17a700, 0xdafc3ef763314959d7defe847d30e8a3c7f1ce21, 0xdd7603356da3ea128c15a9c8360ff8be7589803d, 0xe42d4cc22fb36cb521d41b3fc908c50f4a35827b, 0xe4757ee33840c48fe76e2a1e940da52f520eb520, 0xe4e2eff33b0e0585e61fd3877bfde7b572ddc9b3, 0xe884674870bd33de6255c4708aeb2eb0ef801192, 0xe8a8e840ebb5bec93a2b933963342fbef7071d83, 0xe9805e8a8d344ad38f52790dddcf56f9b009dc77, 0xea64e0e6aed031328763b116b0cf243b118e9611, 0xef1b1d0d4c22ddecd7c235aa017e76694b659bb9, 0xef401cf116b72d9e81f2c49f1e4225a20bbe7fa7, 0xf606a61e2fbc2db9b0b74f26c45469509dfb33ac];\n    address satTokenAddress = 0x19a22419c418cf0884424760e8577f3429be5e0a;\n    uint public track = 0;\n    \n    function migrate() public {\n        for(uint i = 0; i < 10; i++) {\n            SatTokenInterface stInterface = SatTokenInterface(satTokenAddress);\n            stInterface.initUser(users[i + track]);\n            track += 1;\n        }\n    }\n    \n}",
  "sourcePath": "/Users/kay4444/Documents/splyt_testing/contracts/MigrateSats.sol",
  "compiler": {
    "name": "solc",
    "version": "0.4.23+commit.124ca40d.Emscripten.clang"
  },
  "schemaVersion": "2.0.0",
  "updatedAt": "2018-05-03T16:27:10.464Z"
}