{
  "contractName": "SplytTracker",
  "abi": [
    {
      "constant": true,
      "inputs": [],
      "name": "satToken",
      "outputs": [
        {
          "name": "",
          "type": "address"
        }
      ],
      "payable": false,
      "stateMutability": "view",
      "type": "function"
    },
    {
      "constant": true,
      "inputs": [],
      "name": "version",
      "outputs": [
        {
          "name": "",
          "type": "uint256"
        }
      ],
      "payable": false,
      "stateMutability": "view",
      "type": "function"
    },
    {
      "constant": true,
      "inputs": [],
      "name": "ownedBy",
      "outputs": [
        {
          "name": "",
          "type": "string"
        }
      ],
      "payable": false,
      "stateMutability": "view",
      "type": "function"
    },
    {
      "inputs": [
        {
          "name": "_version",
          "type": "uint256"
        },
        {
          "name": "_ownedBy",
          "type": "string"
        },
        {
          "name": "_satToken",
          "type": "address"
        }
      ],
      "payable": false,
      "stateMutability": "nonpayable",
      "type": "constructor"
    },
    {
      "anonymous": false,
      "inputs": [
        {
          "indexed": false,
          "name": "_code",
          "type": "uint256"
        },
        {
          "indexed": false,
          "name": "_assetAddress",
          "type": "address"
        }
      ],
      "name": "Success",
      "type": "event"
    },
    {
      "anonymous": false,
      "inputs": [
        {
          "indexed": false,
          "name": "_code",
          "type": "uint256"
        },
        {
          "indexed": false,
          "name": "_message",
          "type": "string"
        }
      ],
      "name": "Error",
      "type": "event"
    },
    {
      "constant": false,
      "inputs": [
        {
          "name": "_assetId",
          "type": "bytes12"
        },
        {
          "name": "_term",
          "type": "uint256"
        },
        {
          "name": "_seller",
          "type": "address"
        },
        {
          "name": "_title",
          "type": "string"
        },
        {
          "name": "_totalCost",
          "type": "uint256"
        },
        {
          "name": "_exiprationDate",
          "type": "uint256"
        },
        {
          "name": "_mpAddress",
          "type": "address"
        },
        {
          "name": "_mpAmount",
          "type": "uint256"
        }
      ],
      "name": "createAsset",
      "outputs": [],
      "payable": false,
      "stateMutability": "nonpayable",
      "type": "function"
    },
    {
      "constant": true,
      "inputs": [
        {
          "name": "_listingId",
          "type": "bytes12"
        }
      ],
      "name": "getAddressById",
      "outputs": [
        {
          "name": "",
          "type": "address"
        }
      ],
      "payable": false,
      "stateMutability": "view",
      "type": "function"
    },
    {
      "constant": true,
      "inputs": [
        {
          "name": "_contractAddr",
          "type": "address"
        }
      ],
      "name": "getIdByAddress",
      "outputs": [
        {
          "name": "",
          "type": "bytes12"
        }
      ],
      "payable": false,
      "stateMutability": "view",
      "type": "function"
    },
    {
      "constant": false,
      "inputs": [
        {
          "name": "_from",
          "type": "address"
        },
        {
          "name": "_to",
          "type": "address"
        },
        {
          "name": "_amount",
          "type": "uint256"
        }
      ],
      "name": "internalContribute",
      "outputs": [
        {
          "name": "",
          "type": "bool"
        }
      ],
      "payable": false,
      "stateMutability": "nonpayable",
      "type": "function"
    },
    {
      "constant": false,
      "inputs": [
        {
          "name": "_listingAddress",
          "type": "address"
        },
        {
          "name": "_seller",
          "type": "address"
        },
        {
          "name": "_amount",
          "type": "uint256"
        }
      ],
      "name": "internalRedeemFunds",
      "outputs": [
        {
          "name": "",
          "type": "bool"
        }
      ],
      "payable": false,
      "stateMutability": "nonpayable",
      "type": "function"
    },
    {
      "constant": false,
      "inputs": [
        {
          "name": "_wallet",
          "type": "address"
        }
      ],
      "name": "getBalance",
      "outputs": [
        {
          "name": "",
          "type": "uint256"
        }
      ],
      "payable": false,
      "stateMutability": "nonpayable",
      "type": "function"
    }
  ],
  "bytecode": "0x608060405234801561001057600080fd5b5060405161264f38038061264f8339810180604052810190808051906020019092919080518201929190602001805190602001909291905050508260008190555081600190805190602001906100679291906100b1565b5080600260006101000a81548173ffffffffffffffffffffffffffffffffffffffff021916908373ffffffffffffffffffffffffffffffffffffffff160217905550505050610156565b828054600181600116156101000203166002900490600052602060002090601f016020900481019282601f106100f257805160ff1916838001178555610120565b82800160010185558215610120579182015b8281111561011f578251825591602001919060010190610104565b5b50905061012d9190610131565b5090565b61015391905b8082111561014f576000816000905550600101610137565b5090565b90565b6124ea806101656000396000f300608060405260043610610099576000357c0100000000000000000000000000000000000000000000000000000000900463ffffffff168063032348151461009e578063353ce1ac146100f55780633dc1134e1461017a57806354fd4d501461026c57806358c02c17146102975780637f6cdfa61461031b578063addcf55f146103a0578063dff3b49714610430578063f8b2cb4f146104b5575b600080fd5b3480156100aa57600080fd5b506100b361050c565b604051808273ffffffffffffffffffffffffffffffffffffffff1673ffffffffffffffffffffffffffffffffffffffff16815260200191505060405180910390f35b34801561010157600080fd5b50610160600480360381019080803573ffffffffffffffffffffffffffffffffffffffff169060200190929190803573ffffffffffffffffffffffffffffffffffffffff16906020019092919080359060200190929190505050610532565b604051808215151515815260200191505060405180910390f35b34801561018657600080fd5b5061026a600480360381019080803573ffffffffffffffffffffffffffffffffffffffff1916906020019092919080359060200190929190803573ffffffffffffffffffffffffffffffffffffffff169060200190929190803590602001908201803590602001908080601f01602080910402602001604051908101604052809392919081815260200183838082843782019150505050505091929192908035906020019092919080359060200190929190803573ffffffffffffffffffffffffffffffffffffffff16906020019092919080359060200190929190505050610725565b005b34801561027857600080fd5b506102816109d8565b6040518082815260200191505060405180910390f35b3480156102a357600080fd5b506102d9600480360381019080803573ffffffffffffffffffffffffffffffffffffffff191690602001909291905050506109de565b604051808273ffffffffffffffffffffffffffffffffffffffff1673ffffffffffffffffffffffffffffffffffffffff16815260200191505060405180910390f35b34801561032757600080fd5b50610386600480360381019080803573ffffffffffffffffffffffffffffffffffffffff169060200190929190803573ffffffffffffffffffffffffffffffffffffffff16906020019092919080359060200190929190505050610a36565b604051808215151515815260200191505060405180910390f35b3480156103ac57600080fd5b506103b5610c29565b6040518080602001828103825283818151815260200191508051906020019080838360005b838110156103f55780820151818401526020810190506103da565b50505050905090810190601f1680156104225780820380516001836020036101000a031916815260200191505b509250505060405180910390f35b34801561043c57600080fd5b50610471600480360381019080803573ffffffffffffffffffffffffffffffffffffffff169060200190929190505050610cc7565b604051808273ffffffffffffffffffffffffffffffffffffffff191673ffffffffffffffffffffffffffffffffffffffff1916815260200191505060405180910390f35b3480156104c157600080fd5b506104f6600480360381019080803573ffffffffffffffffffffffffffffffffffffffff169060200190929190505050610d31565b6040518082815260200191505060405180910390f35b600260009054906101000a900473ffffffffffffffffffffffffffffffffffffffff1681565b60008060007f3078300000000000000000000000000000000000000000000000000000000000600360003373ffffffffffffffffffffffffffffffffffffffff1673ffffffffffffffffffffffffffffffffffffffff16815260200190815260200160002060009054906101000a9004740100000000000000000000000000000000000000000273ffffffffffffffffffffffffffffffffffffffff191614156105df576000925061071c565b600260009054906101000a900473ffffffffffffffffffffffffffffffffffffffff1691508173ffffffffffffffffffffffffffffffffffffffff166323b872dd8787876040518463ffffffff167c0100000000000000000000000000000000000000000000000000000000028152600401808473ffffffffffffffffffffffffffffffffffffffff1673ffffffffffffffffffffffffffffffffffffffff1681526020018373ffffffffffffffffffffffffffffffffffffffff1673ffffffffffffffffffffffffffffffffffffffff1681526020018281526020019350505050602060405180830381600087803b1580156106db57600080fd5b505af11580156106ef573d6000803e3d6000fd5b505050506040513d602081101561070557600080fd5b810190808051906020019092919050505090508092505b50509392505050565b60008888888888888888610737610e37565b808973ffffffffffffffffffffffffffffffffffffffff191673ffffffffffffffffffffffffffffffffffffffff191681526020018881526020018773ffffffffffffffffffffffffffffffffffffffff1673ffffffffffffffffffffffffffffffffffffffff168152602001806020018681526020018581526020018473ffffffffffffffffffffffffffffffffffffffff1673ffffffffffffffffffffffffffffffffffffffff168152602001838152602001828103825287818151815260200191508051906020019080838360005b83811015610824578082015181840152602081019050610809565b50505050905090810190601f1680156108515780820380516001836020036101000a031916815260200191505b509950505050505050505050604051809103906000f080158015610879573d6000803e3d6000fd5b50905088600360008373ffffffffffffffffffffffffffffffffffffffff1673ffffffffffffffffffffffffffffffffffffffff16815260200190815260200160002060006101000a8154816bffffffffffffffffffffffff0219169083740100000000000000000000000000000000000000009004021790555080600460008b73ffffffffffffffffffffffffffffffffffffffff191660001916815260200190815260200160002060006101000a81548173ffffffffffffffffffffffffffffffffffffffff021916908373ffffffffffffffffffffffffffffffffffffffff1602179055507f2539b4cc2b40f86b739ed651d0bf19a6b3db2c37cde9a6de9bd20707832c2677600182604051808381526020018273ffffffffffffffffffffffffffffffffffffffff1673ffffffffffffffffffffffffffffffffffffffff1681526020019250505060405180910390a1505050505050505050565b60005481565b6000600460008373ffffffffffffffffffffffffffffffffffffffff191660001916815260200190815260200160002060009054906101000a900473ffffffffffffffffffffffffffffffffffffffff169050919050565b60008060007f3078300000000000000000000000000000000000000000000000000000000000600360003373ffffffffffffffffffffffffffffffffffffffff1673ffffffffffffffffffffffffffffffffffffffff16815260200190815260200160002060009054906101000a9004740100000000000000000000000000000000000000000273ffffffffffffffffffffffffffffffffffffffff19161415610ae35760009250610c20565b600260009054906101000a900473ffffffffffffffffffffffffffffffffffffffff1691508173ffffffffffffffffffffffffffffffffffffffff166323b872dd8787876040518463ffffffff167c0100000000000000000000000000000000000000000000000000000000028152600401808473ffffffffffffffffffffffffffffffffffffffff1673ffffffffffffffffffffffffffffffffffffffff1681526020018373ffffffffffffffffffffffffffffffffffffffff1673ffffffffffffffffffffffffffffffffffffffff1681526020018281526020019350505050602060405180830381600087803b158015610bdf57600080fd5b505af1158015610bf3573d6000803e3d6000fd5b505050506040513d6020811015610c0957600080fd5b810190808051906020019092919050505090508092505b50509392505050565b60018054600181600116156101000203166002900480601f016020809104026020016040519081016040528092919081815260200182805460018160011615610100020316600290048015610cbf5780601f10610c9457610100808354040283529160200191610cbf565b820191906000526020600020905b815481529060010190602001808311610ca257829003601f168201915b505050505081565b6000600360008373ffffffffffffffffffffffffffffffffffffffff1673ffffffffffffffffffffffffffffffffffffffff16815260200190815260200160002060009054906101000a900474010000000000000000000000000000000000000000029050919050565b600080600260009054906101000a900473ffffffffffffffffffffffffffffffffffffffff1690508073ffffffffffffffffffffffffffffffffffffffff166370a08231846040518263ffffffff167c0100000000000000000000000000000000000000000000000000000000028152600401808273ffffffffffffffffffffffffffffffffffffffff1673ffffffffffffffffffffffffffffffffffffffff168152602001915050602060405180830381600087803b158015610df457600080fd5b505af1158015610e08573d6000803e3d6000fd5b505050506040513d6020811015610e1e57600080fd5b8101908080519060200190929190505050915050919050565b60405161167780610e48833901905600608060405260006005556001600960006101000a81548160ff0219169083151502179055503480156200003157600080fd5b506040516200167738038062001677833981018060405281019080805190602001909291908051906020019092919080519060200190929190805182019291906020018051906020019092919080519060200190929190805190602001909291908051906020019092919050505087600360006101000a8154816bffffffffffffffffffffffff021916908374010000000000000000000000000000000000000000900402179055508660048190555085600160006101000a81548173ffffffffffffffffffffffffffffffffffffffff021916908373ffffffffffffffffffffffffffffffffffffffff16021790555084600a90805190602001906200013a92919062000204565b5083600681905550826007819055508060088190555060028290806001815401808255809150509060018203906000526020600020016000909192909190916101000a81548173ffffffffffffffffffffffffffffffffffffffff021916908373ffffffffffffffffffffffffffffffffffffffff16021790555050336000806101000a81548173ffffffffffffffffffffffffffffffffffffffff021916908373ffffffffffffffffffffffffffffffffffffffff1602179055505050505050505050620002b3565b828054600181600116156101000203166002900490600052602060002090601f016020900481019282601f106200024757805160ff191683800117855562000278565b8280016001018555821562000278579182015b82811115620002775782518255916020019190600101906200025a565b5b5090506200028791906200028b565b5090565b620002b091905b80821115620002ac57600081600090555060010162000292565b5090565b90565b6113b480620002c36000396000f300608060405260043610610107576000357c0100000000000000000000000000000000000000000000000000000000900463ffffffff16806308551a531461010c578063277eec39146101635780632f13b60c146101ba5780633c5e6c97146101e957806344de240a146102145780634a79d50c1461026d5780635cccf09d146102fd5780635e2b956d1461032f57806369d895751461035a5780637c654303146103715780638d472709146103a05780638f6204871461040d578063994dfab514610438578063a10ffbed14610576578063c520e717146105a1578063cb10bfda146105d0578063f52bccad14610615578063f7ec2f351461066c578063f9c36fde1461069b575b600080fd5b34801561011857600080fd5b506101216106c6565b604051808273ffffffffffffffffffffffffffffffffffffffff1673ffffffffffffffffffffffffffffffffffffffff16815260200191505060405180910390f35b34801561016f57600080fd5b506101a4600480360381019080803573ffffffffffffffffffffffffffffffffffffffff1690602001909291905050506106ec565b6040518082815260200191505060405180910390f35b3480156101c657600080fd5b506101cf610735565b604051808215151515815260200191505060405180910390f35b3480156101f557600080fd5b506101fe610742565b6040518082815260200191505060405180910390f35b34801561022057600080fd5b50610229610748565b604051808273ffffffffffffffffffffffffffffffffffffffff191673ffffffffffffffffffffffffffffffffffffffff1916815260200191505060405180910390f35b34801561027957600080fd5b5061028261076f565b6040518080602001828103825283818151815260200191508051906020019080838360005b838110156102c25780820151818401526020810190506102a7565b50505050905090810190601f1680156102ef5780820380516001836020036101000a031916815260200191505b509250505060405180910390f35b34801561030957600080fd5b5061031261080d565b604051808381526020018281526020019250505060405180910390f35b34801561033b57600080fd5b5061034461083b565b6040518082815260200191505060405180910390f35b34801561036657600080fd5b5061036f610841565b005b34801561037d57600080fd5b50610386610b2f565b604051808215151515815260200191505060405180910390f35b3480156103ac57600080fd5b5061040b600480360381019080803573ffffffffffffffffffffffffffffffffffffffff169060200190929190803573ffffffffffffffffffffffffffffffffffffffff16906020019092919080359060200190929190505050610b3e565b005b34801561041957600080fd5b506104226110f5565b6040518082815260200191505060405180910390f35b34801561044457600080fd5b5061044d6110fb565b604051808c600019166000191681526020018b81526020018a73ffffffffffffffffffffffffffffffffffffffff1673ffffffffffffffffffffffffffffffffffffffff1681526020018981526020018060200188151515158152602001871515151581526020018681526020018581526020018473ffffffffffffffffffffffffffffffffffffffff1673ffffffffffffffffffffffffffffffffffffffff168152602001838152602001828103825289818151815260200191508051906020019080838360005b83811015610531578082015181840152602081019050610516565b50505050905090810190601f16801561055e5780820380516001836020036101000a031916815260200191505b509c5050505050505050505050505060405180910390f35b34801561058257600080fd5b5061058b611288565b6040518082815260200191505060405180910390f35b3480156105ad57600080fd5b506105b661128e565b604051808215151515815260200191505060405180910390f35b3480156105dc57600080fd5b506105fb600480360381019080803590602001909291905050506112ab565b604051808215151515815260200191505060405180910390f35b34801561062157600080fd5b5061062a6112e9565b604051808273ffffffffffffffffffffffffffffffffffffffff1673ffffffffffffffffffffffffffffffffffffffff16815260200191505060405180910390f35b34801561067857600080fd5b5061068161130e565b604051808215151515815260200191505060405180910390f35b3480156106a757600080fd5b506106b0611321565b6040518082815260200191505060405180910390f35b600160009054906101000a900473ffffffffffffffffffffffffffffffffffffffff1681565b6000600b60008373ffffffffffffffffffffffffffffffffffffffff1673ffffffffffffffffffffffffffffffffffffffff168152602001908152602001600020549050919050565b6000426007541115905090565b60065481565b600360009054906101000a9004740100000000000000000000000000000000000000000281565b600a8054600181600116156101000203166002900480601f0160208091040260200160405190810160405280929190818152602001828054600181600116156101000203166002900480156108055780601f106107da57610100808354040283529160200191610805565b820191906000526020600020905b8154815290600101906020018083116107e857829003601f168201915b505050505081565b60008060008060028054905060085481151561082557fe5b0491508160065403905081819350935050509091565b60085481565b60008060008061084f610b2f565b15610b29576000809054906101000a900473ffffffffffffffffffffffffffffffffffffffff16935061088061080d565b80935081945050508373ffffffffffffffffffffffffffffffffffffffff1663353ce1ac30600160009054906101000a900473ffffffffffffffffffffffffffffffffffffffff16856040518463ffffffff167c0100000000000000000000000000000000000000000000000000000000028152600401808473ffffffffffffffffffffffffffffffffffffffff1673ffffffffffffffffffffffffffffffffffffffff1681526020018373ffffffffffffffffffffffffffffffffffffffff1673ffffffffffffffffffffffffffffffffffffffff1681526020018281526020019350505050602060405180830381600087803b15801561098157600080fd5b505af1158015610995573d6000803e3d6000fd5b505050506040513d60208110156109ab57600080fd5b810190808051906020019092919050505050600090505b600280549050811015610b28578373ffffffffffffffffffffffffffffffffffffffff1663353ce1ac306002848154811015156109fb57fe5b9060005260206000200160009054906101000a900473ffffffffffffffffffffffffffffffffffffffff16866040518463ffffffff167c0100000000000000000000000000000000000000000000000000000000028152600401808473ffffffffffffffffffffffffffffffffffffffff1673ffffffffffffffffffffffffffffffffffffffff1681526020018373ffffffffffffffffffffffffffffffffffffffff1673ffffffffffffffffffffffffffffffffffffffff1681526020018281526020019350505050602060405180830381600087803b158015610adf57600080fd5b505af1158015610af3573d6000803e3d6000fd5b505050506040513d6020811015610b0957600080fd5b81019080805190602001909291905050505080806001019150506109c2565b5b50505050565b60006006546005541015905090565b600080600080600080610b50876112ab565b1515610b5b57600080fd5b6000809054906101000a900473ffffffffffffffffffffffffffffffffffffffff1694508473ffffffffffffffffffffffffffffffffffffffff1663f8b2cb4f896040518263ffffffff167c0100000000000000000000000000000000000000000000000000000000028152600401808273ffffffffffffffffffffffffffffffffffffffff1673ffffffffffffffffffffffffffffffffffffffff168152602001915050602060405180830381600087803b158015610c1a57600080fd5b505af1158015610c2e573d6000803e3d6000fd5b505050506040513d6020811015610c4457600080fd5b8101908080519060200190929190505050935086841015610c6457600080fd5b60028990806001815401808255809150509060018203906000526020600020016000909192909190916101000a81548173ffffffffffffffffffffffffffffffffffffffff021916908373ffffffffffffffffffffffffffffffffffffffff16021790555050610cd261128e565b15610e10578473ffffffffffffffffffffffffffffffffffffffff16637f6cdfa689308a6040518463ffffffff167c0100000000000000000000000000000000000000000000000000000000028152600401808473ffffffffffffffffffffffffffffffffffffffff1673ffffffffffffffffffffffffffffffffffffffff1681526020018373ffffffffffffffffffffffffffffffffffffffff1673ffffffffffffffffffffffffffffffffffffffff1681526020018281526020019350505050602060405180830381600087803b158015610dae57600080fd5b505af1158015610dc2573d6000803e3d6000fd5b505050506040513d6020811015610dd857600080fd5b81019080805190602001909291905050509550600115158615151415610e0357610e028888611327565b5b610e0b610841565b6110ea565b600654871015156110e457610e2361080d565b80935081945050508473ffffffffffffffffffffffffffffffffffffffff16637f6cdfa689600160009054906101000a900473ffffffffffffffffffffffffffffffffffffffff16856040518463ffffffff167c0100000000000000000000000000000000000000000000000000000000028152600401808473ffffffffffffffffffffffffffffffffffffffff1673ffffffffffffffffffffffffffffffffffffffff1681526020018373ffffffffffffffffffffffffffffffffffffffff1673ffffffffffffffffffffffffffffffffffffffff1681526020018281526020019350505050602060405180830381600087803b158015610f2457600080fd5b505af1158015610f38573d6000803e3d6000fd5b505050506040513d6020811015610f4e57600080fd5b810190808051906020019092919050505050610f6a8888611327565b60008311156110df57600090505b6002805490508110156110de578473ffffffffffffffffffffffffffffffffffffffff16637f6cdfa689600284815481101515610fb157fe5b9060005260206000200160009054906101000a900473ffffffffffffffffffffffffffffffffffffffff16866040518463ffffffff167c0100000000000000000000000000000000000000000000000000000000028152600401808473ffffffffffffffffffffffffffffffffffffffff1673ffffffffffffffffffffffffffffffffffffffff1681526020018373ffffffffffffffffffffffffffffffffffffffff1673ffffffffffffffffffffffffffffffffffffffff1681526020018281526020019350505050602060405180830381600087803b15801561109557600080fd5b505af11580156110a9573d6000803e3d6000fd5b505050506040513d60208110156110bf57600080fd5b8101908080519060200190929190505050508080600101915050610f78565b5b6110e9565b600080fd5b5b505050505050505050565b60075481565b6000806000806060600080600080600080600360009054906101000a90047401000000000000000000000000000000000000000002600454600160009054906101000a900473ffffffffffffffffffffffffffffffffffffffff16600554600a611163610b2f565b61116b610735565b6006546007546002600081548110151561118157fe5b9060005260206000200160009054906101000a900473ffffffffffffffffffffffffffffffffffffffff166008548a73ffffffffffffffffffffffffffffffffffffffff19169a50868054600181600116156101000203166002900480601f01602080910402602001604051908101604052809291908181526020018280546001816001161561010002031660029004801561125e5780601f106112335761010080835404028352916020019161125e565b820191906000526020600020905b81548152906001019060200180831161124157829003601f168201915b505050505096509a509a509a509a509a509a509a509a509a509a509a50909192939495969798999a565b60045481565b60008060045411156112a357600190506112a8565b600090505b90565b6000806112b6610735565b156112c457600091506112e3565b600554830190506006548111156112de57600091506112e3565b600191505b50919050565b6000809054906101000a900473ffffffffffffffffffffffffffffffffffffffff1681565b600960009054906101000a900460ff1681565b60055481565b8060056000828254019250508190555080600b60008473ffffffffffffffffffffffffffffffffffffffff1673ffffffffffffffffffffffffffffffffffffffff1681526020019081526020016000206000828254019250508190555050505600a165627a7a72305820334819103e8607f207aafd786f44d97bfa22cd6c1d70f653a7c247e21f522dca0029a165627a7a72305820e3e4fc282612b3e74781f5c0a61234477509a25c02a7eaae2fbf61d4ab9b0adc0029",
  "source": "pragma solidity ^0.4.21;\n\nimport \"../contracts/Asset.sol\";\nimport \"../contracts/Events.sol\";\n\ncontract TokenInterface {\n    function transferFrom(address _from, address _to, uint _value) public returns (bool);\n    function balanceOf(address _wallet) public returns (uint);\n}\n\ncontract SplytTracker {\n\n    uint public version;\n    string public ownedBy;\n    address public satToken;\n    mapping (address => bytes12) assetIdByAddress;\n    mapping (bytes32 => address) addressByassetId;\n    \n    // Events to notify other market places of something\n    // Success events gets triggered when a listing is created or a listing is fully funded\n    // _code: 1 = listing created, 2 = contributions came in\n    // _assetAddress: the asset address for which the code happened\n    event Success(uint _code, address _assetAddress);\n    event Error(uint _code, string _message);\n\n\n    constructor(uint _version, string _ownedBy, address _satToken) public {\n        version = _version;\n        ownedBy = _ownedBy;\n        satToken = _satToken;\n    }\n\n    // Setter functions. creates new asset contract given the parameters\n    function createAsset(\n        bytes12 _assetId, \n        uint _term, \n        address _seller, \n        string _title, \n        uint _totalCost, \n        uint _exiprationDate, \n        address _mpAddress, \n        uint _mpAmount) \n        public {\n            address newAsset = new Asset(_assetId, _term, _seller, _title, _totalCost, _exiprationDate, _mpAddress, _mpAmount);\n            assetIdByAddress[newAsset] = _assetId;\n            addressByassetId[_assetId] = newAsset;\n            emit Success(1, newAsset);\n    }\n\n    // Getter function. returns asset contract address given asset UUID\n    function getAddressById(bytes12 _listingId) public constant returns (address) {\n        return addressByassetId[_listingId];\n    }\n\n    // Getter function. returns asset's UUID given asset's contract address\n    function getIdByAddress(address _contractAddr) public constant returns (bytes12) {\n        return assetIdByAddress[_contractAddr];\n    }\n    \n    // User for single buy to transfer tokens from buyer address to seller address\n    function internalContribute(address _from, address _to, uint _amount) public returns (bool) {\n        \n        if(assetIdByAddress[msg.sender] == \"0x0\")\n            return false;\n        TokenInterface tokenContract = TokenInterface(satToken);\n        bool result = tokenContract.transferFrom(_from, _to, _amount);\n        // if(result == true) {\n        //     emit Success(2, msg.sender);\n        // }\n        return result;\n    }\n    \n    // Used for fractional ownership to transfer tokens from user address to listing address\n    function internalRedeemFunds(address _listingAddress, address _seller, uint _amount) public returns (bool) {\n        \n        if(assetIdByAddress[msg.sender] == \"0x0\")\n            return false;\n        TokenInterface tokenContract = TokenInterface(satToken);\n        bool result = tokenContract.transferFrom(_listingAddress, _seller, _amount);\n        // if(result == true) {\n        //     emit Success(2, msg.sender);\n        // }\n        return result;\n    }\n    \n    // Getter function. returns token contract address\n    function getBalance(address _wallet) public returns (uint) {\n        TokenInterface tokenContract = TokenInterface(satToken);\n        return tokenContract.balanceOf(_wallet);\n    }\n}",
  "sourcePath": "/Users/kay4444/Documents/splyt_testing/contracts/SplytTracker.sol",
  "compiler": {
    "name": "solc",
    "version": "0.4.23+commit.124ca40d.Emscripten.clang"
  },
  "schemaVersion": "2.0.0",
  "updatedAt": "2018-05-03T16:27:10.468Z"
}